{
  "contractName": "Lottery",
  "abi": [
    {
      "inputs": [],
      "stateMutability": "nonpayable",
      "type": "constructor"
    },
    {
      "inputs": [],
      "name": "fees",
      "outputs": [
        {
          "internalType": "uint256",
          "name": "",
          "type": "uint256"
        }
      ],
      "stateMutability": "view",
      "type": "function",
      "constant": true
    },
    {
      "inputs": [],
      "name": "manager",
      "outputs": [
        {
          "internalType": "address",
          "name": "",
          "type": "address"
        }
      ],
      "stateMutability": "view",
      "type": "function",
      "constant": true
    },
    {
      "inputs": [
        {
          "internalType": "uint256",
          "name": "",
          "type": "uint256"
        }
      ],
      "name": "participants",
      "outputs": [
        {
          "internalType": "address payable",
          "name": "",
          "type": "address"
        }
      ],
      "stateMutability": "view",
      "type": "function",
      "constant": true
    },
    {
      "inputs": [],
      "name": "enterLotteryByPayingFees",
      "outputs": [],
      "stateMutability": "payable",
      "type": "function",
      "payable": true
    },
    {
      "inputs": [],
      "name": "getBalance",
      "outputs": [
        {
          "internalType": "uint256",
          "name": "",
          "type": "uint256"
        }
      ],
      "stateMutability": "view",
      "type": "function",
      "constant": true
    },
    {
      "inputs": [],
      "name": "findWinner",
      "outputs": [
        {
          "internalType": "address",
          "name": "",
          "type": "address"
        }
      ],
      "stateMutability": "nonpayable",
      "type": "function"
    },
    {
      "inputs": [],
      "name": "getParticipants",
      "outputs": [
        {
          "internalType": "address payable[]",
          "name": "",
          "type": "address[]"
        }
      ],
      "stateMutability": "view",
      "type": "function",
      "constant": true
    }
  ],
  "bytecode": "0x60806040526717979cfe362a000060025534801561001c57600080fd5b50336000806101000a81548173ffffffffffffffffffffffffffffffffffffffff021916908373ffffffffffffffffffffffffffffffffffffffff1602179055506109278061006c6000396000f3fe6080604052600436106100705760003560e01c80635aa68ac01161004e5780635aa68ac0146101085780638e71decb146101335780639346df621461015e5780639af1d35a1461016857610070565b806312065fe01461007557806335c1d349146100a0578063481c6a75146100dd575b600080fd5b34801561008157600080fd5b5061008a610193565b60405161009791906107a1565b60405180910390f35b3480156100ac57600080fd5b506100c760048036038101906100c2919061066e565b6101f4565b6040516100d49190610764565b60405180910390f35b3480156100e957600080fd5b506100f2610233565b6040516100ff9190610749565b60405180910390f35b34801561011457600080fd5b5061011d610257565b60405161012a919061077f565b60405180910390f35b34801561013f57600080fd5b506101486102e5565b6040516101559190610749565b60405180910390f35b6101666104ef565b005b34801561017457600080fd5b5061017d610562565b60405161018a91906107a1565b60405180910390f35b60008060009054906101000a900473ffffffffffffffffffffffffffffffffffffffff1673ffffffffffffffffffffffffffffffffffffffff163373ffffffffffffffffffffffffffffffffffffffff16146101ee57600080fd5b47905090565b6001818154811061020457600080fd5b906000526020600020016000915054906101000a900473ffffffffffffffffffffffffffffffffffffffff1681565b60008054906101000a900473ffffffffffffffffffffffffffffffffffffffff1681565b606060018054806020026020016040519081016040528092919081815260200182805480156102db57602002820191906000526020600020905b8160009054906101000a900473ffffffffffffffffffffffffffffffffffffffff1673ffffffffffffffffffffffffffffffffffffffff1681526020019060010190808311610291575b5050505050905090565b60008060009054906101000a900473ffffffffffffffffffffffffffffffffffffffff1673ffffffffffffffffffffffffffffffffffffffff163373ffffffffffffffffffffffffffffffffffffffff161461034057600080fd5b600061034a610568565b905060018181548110610386577f4e487b7100000000000000000000000000000000000000000000000000000000600052603260045260246000fd5b9060005260206000200160009054906101000a900473ffffffffffffffffffffffffffffffffffffffff1673ffffffffffffffffffffffffffffffffffffffff166108fc6103d2610193565b9081150290604051600060405180830381858888f193505050501580156103fd573d6000803e3d6000fd5b50600067ffffffffffffffff81111561043f577f4e487b7100000000000000000000000000000000000000000000000000000000600052604160045260246000fd5b60405190808252806020026020018201604052801561046d5781602001602082028036833780820191505090505b50600190805190602001906104839291906105b2565b50600181815481106104be577f4e487b7100000000000000000000000000000000000000000000000000000000600052603260045260246000fd5b9060005260206000200160009054906101000a900473ffffffffffffffffffffffffffffffffffffffff1691505090565b60025434146104fd57600080fd5b6001339080600181540180825580915050600190039060005260206000200160009091909190916101000a81548173ffffffffffffffffffffffffffffffffffffffff021916908373ffffffffffffffffffffffffffffffffffffffff160217905550565b60025481565b6000600180549050424460018054905060405160200161058a939291906107bc565b6040516020818303038152906040528051906020012060001c6105ad919061087a565b905090565b82805482825590600052602060002090810192821561062b579160200282015b8281111561062a5782518260006101000a81548173ffffffffffffffffffffffffffffffffffffffff021916908373ffffffffffffffffffffffffffffffffffffffff160217905550916020019190600101906105d2565b5b509050610638919061063c565b5090565b5b8082111561065557600081600090555060010161063d565b5090565b600081359050610668816108da565b92915050565b60006020828403121561068057600080fd5b600061068e84828501610659565b91505092915050565b60006106a383836106af565b60208301905092915050565b6106b88161083e565b82525050565b6106c78161083e565b82525050565b6106d68161082c565b82525050565b60006106e782610803565b6106f1818561081b565b93506106fc836107f3565b8060005b8381101561072d5781516107148882610697565b975061071f8361080e565b925050600181019050610700565b5085935050505092915050565b61074381610870565b82525050565b600060208201905061075e60008301846106cd565b92915050565b600060208201905061077960008301846106be565b92915050565b6000602082019050818103600083015261079981846106dc565b905092915050565b60006020820190506107b6600083018461073a565b92915050565b60006060820190506107d1600083018661073a565b6107de602083018561073a565b6107eb604083018461073a565b949350505050565b6000819050602082019050919050565b600081519050919050565b6000602082019050919050565b600082825260208201905092915050565b600061083782610850565b9050919050565b600061084982610850565b9050919050565b600073ffffffffffffffffffffffffffffffffffffffff82169050919050565b6000819050919050565b600061088582610870565b915061089083610870565b9250826108a05761089f6108ab565b5b828206905092915050565b7f4e487b7100000000000000000000000000000000000000000000000000000000600052601260045260246000fd5b6108e381610870565b81146108ee57600080fd5b5056fea26469706673582212204a5e26dae80c711c20c5ea255415127f7ab5c64dd33d4a41b3b341f891656df764736f6c63430008000033",
  "immutableReferences": {},
  "source": "//SPDX-License-Identifier: UNLICENSED\n\npragma solidity >=0.7.0 <0.9.0;\n\ncontract Lottery{\n    address public manager;\n    address payable[] public participants;\n    uint public fees = 1.7 ether;\n\n    constructor(){\n        manager = msg.sender;\n    }\n\n    function enterLotteryByPayingFees() external payable{\n        require(msg.value==fees);\n        participants.push(payable(msg.sender));\n    }\n\n    function getBalance() public view returns(uint){\n        require(msg.sender == manager);\n        return address(this).balance;\n    }\n\n    function findRandomNumber() private view returns(uint){\n        return uint(keccak256(abi.encode(block.timestamp,block.difficulty,participants.length)))%participants.length;\n    }\n\n    function findWinner() public returns(address){\n        require(msg.sender == manager);\n        uint rand = findRandomNumber();\n        participants[rand].transfer(getBalance());\n        participants = new address payable[](0);\n        return address(participants[rand]);\n    }\n\n    function getParticipants() public view returns(address payable[] memory){\n        return participants;\n    }\n}",
  "sourcePath": "/home/yash/Desktop/VS code workspace/web3/Projects/Lottery/contracts/Lottery.sol",
  "compiler": {
    "name": "solc",
    "version": "0.8.0+commit.c7dfd78e.Emscripten.clang"
  },
  "schemaVersion": "3.4.6",
  "updatedAt": "2022-06-03T17:56:00.090Z",
  "networkType": "ethereum",
  "devdoc": {
    "kind": "dev",
    "methods": {},
    "version": 1
  },
  "userdoc": {
    "kind": "user",
    "methods": {},
    "version": 1
  }
}